:100000000C9463000C948B000C948B000C948B006C
:100010000C948B000C948B000C948B000C948B0034
:100020000C948B000C948B000C948B000C948B0024
:100030000C948B000C948B000C948B000C948B0014
:100040000C942D040C948B000C94FB030C94D5039E
:100050000C948B000C948B000C948B000C948B00F4
:100060000C948B000C948B000000000024002700EF
:100070002A0000000000250028002B0000000000DE
:1000800023002600290004040404040404040202DA
:100090000202020203030303030301020408102007
:1000A0004080010204081020010204081020000012
:1000B0000008000201000003040700000000000027
:1000C00000008105EE0811241FBECFEFD8E0DEBF8F
:1000D000CDBF22E0A2E7B1E001C01D92A13BB20773
:1000E000E1F711E0A0E0B1E0ECECF6E102C0059030
:1000F0000D92A237B107D9F710E0C2E6D0E004C0F4
:100100002197FE010E945809C136D107C9F70E9404
:1001100046060C94590B0C940000AF92BF92CF92FC
:10012000DF92EF92FF920F931F93CF93DF936C01B7
:100130007B018B01040F151FEB015E01AE18BF0898
:10014000C017D10759F06991D601ED91FC9101904A
:10015000F081E02DC6010995892B79F7C501DF9162
:10016000CF911F910F91FF90EF90DF90CF90BF90B4
:10017000AF900895FC01538D448D252F30E0842FDE
:1001800090E0821B930B541710F0CF9608950197BF
:100190000895FC01918D828D981761F0A28DAE0FAC
:1001A000BF2FB11D5D968C91928D9F5F9F73928F33
:1001B00090E008958FEF9FEF0895FC01918D828D5F
:1001C000981731F0828DE80FF11D858D90E008952C
:1001D0008FEF9FEF0895FC01918D228D892F90E084
:1001E000805C9F4F821B91098F73992708958DE73B
:1001F00091E00E94EB0021E0892B09F420E0822F9E
:10020000089580E090E0892B29F00E94F700811189
:100210000C9400000895FC01A48DA80FB92FB11D06
:10022000A35ABF4F2C91848D90E001968F7399272C
:10023000848FA689B7892C93A089B1898C9183700A
:1002400080648C93938D848D981306C00288F38903
:10025000E02D80818F7D80830895EF92FF920F9330
:100260001F93CF93DF93EC0181E0888F9B8D8C8D62
:1002700098131AC0E889F989808185FF15C09FB756
:10028000F894EE89FF896083E889F9898081837019
:10029000806480839FBF81E090E0DF91CF911F91C8
:1002A0000F91FF90EF900895F62E0B8D10E00F5FE9
:1002B0001F4F0F731127E02E8C8D8E110CC00FB6BF
:1002C00007FCFACFE889F989808185FFF5CFCE0157
:1002D0000E940B01F1CFEB8DEC0FFD2FF11DE35AC6
:1002E000FF4FF0829FB7F8940B8FEA89FB898081DA
:1002F0008062CFCFCF93DF93EC01888D8823B9F054
:10030000AA89BB89E889F9898C9185FD03C0808120
:1003100086FD0DC00FB607FCF7CF8C9185FFF2CF9D
:10032000808185FFEDCFCE010E940B01E9CFDF91E7
:10033000CF910895833081F028F4813099F0823094
:10034000A9F008958730A9F08830C9F08430B1F45D
:10035000809180008F7D03C0809180008F77809393
:100360008000089584B58F7784BD089584B58F7D0E
:10037000FBCF8091B0008F778093B000089580917B
:10038000B0008F7DF9CFCF93DF93282F30E0F901B4
:10039000E255FF4F8491F901E656FF4FD491F901E0
:1003A000EA57FF4FC491CC23A1F081110E949A011A
:1003B000EC2FF0E0EE0FFF1FE458FF4FA591B49132
:1003C000EC91ED2381E090E009F480E0DF91CF91A2
:1003D000089580E090E0FACF862F0C94C3011F931C
:1003E000CF93DF93282F30E0F901E255FF4F84913E
:1003F000F901E656FF4FD491F901EA57FF4FC49136
:10040000CC23A9F0162F81110E949A01EC2FF0E065
:10041000EE0FFF1FEE58FF4FA591B4918FB7F894E0
:10042000EC91111108C0D095DE23DC938FBFDF91D2
:10043000CF911F910895DE2BF8CF862F642F0C9457
:10044000EF01CF93DF9390E0FC01E656FF4F24913C
:100450008A579F4FFC0184918823C9F090E0880F50
:10046000991FFC01E859FF4FA591B491FC01EE588A
:10047000FF4FC591D49161110DC09FB7F8948C9135
:10048000209582238C938881282328839FBFDF9126
:10049000CF910895623051F49FB7F8943C91822F28
:1004A000809583238C93E8812E2BEFCF8FB7F89420
:1004B000EC912E2B2C938FBFEACF862F642F0C94B8
:1004C0002102089590E080E00895CF93DF93EC013E
:1004D00060E08E810E94EF0161E08E810E94EF0159
:1004E00060E08E810E94EF018BE891E00197F1F7C7
:1004F000DF91CF910895CF92DF92EF92FF920F9309
:100500001F93CF93DF936C017C0187E0E80EF11C11
:10051000D0E0C0E0062F10E0B8010C2E02C07595A7
:1005200067950A94E2F76170F70181917F010E945B
:10053000EF012196C430D10579F7C601DF91CF9143
:100540001F910F91FF90EF90DF90CF900C94650278
:10055000CF92DF92EF92FF920F931F93CF93DF938F
:10056000EC01F62E642F8C810E94EF018D818F3F6C
:1005700019F060E00E94EF010F2D10E08F8584FFDD
:1005800025C06E0187E0C80ED11CF12CE12CB8010A
:100590000E2C02C0759567950A94E2F76170F6011A
:1005A00081916F010E94EF01FFEFEF1AFF0A88E0CF
:1005B000E816F10461F7CE01DF91CF911F910F9101
:1005C000FF90EF90DF90CF900C946502B80184E02B
:1005D000759567958A95E1F7CE010E947B026F2D94
:1005E000CE01DF91CF911F910F91FF90EF90DF909F
:1005F000CF900C947B0240E0682F85E992E00C9448
:10060000A802CF93DF93823029F49091A4029860DE
:100610009093A4028093A8021092A90280E4809390
:10062000AA0280E18093AB0280E58093AC0261E096
:10063000809199020E94210280919A028F3F19F0C5
:1006400061E00E94210261E080919B020E942102F0
:10065000C5E9D2E09E01255932408091A40284FD73
:100660000BC084E090E021962817390744F461E03C
:100670008E810E942102EECF88E090E0F4CF8BE3E0
:100680009DE00197F1F760E0809199020E94EF01EF
:1006900060E080919B020E94EF0180919A028F3F5F
:1006A00019F060E00E94EF018091A40284FD39C03E
:1006B00063E085E992E00E947B02CBE4D6E4CE01C0
:1006C0000197F1F763E085E992E00E947B022197B0
:1006D000F1F763E085E992E00E947B0283E592E016
:1006E0000197F1F762E085E992E00E947B02809138
:1006F000A40280620E94FB0284E08093A5028CE049
:100700000E94FB0281E00E94FB028BE39FE10197C4
:10071000F1F782E08093A60286E0DF91CF910C94FE
:10072000FB0280620E94FB028BE496E40197F1F7E2
:100730008091A40280620E94FB0283E592E001970F
:10074000F1F78091A40280620E94FB02D0CF41E0C9
:100750000E94A80281E090E008950F931F93CF9329
:10076000DF93EC0188819981009759F02A813B81C0
:100770002617370730F081E0DF91CF911F910F915D
:1007800008958B016F5F7F4F0E94830A009759F095
:10079000998388831B830A832C813D81232B59F7FE
:1007A000FC011082E8CF80E0E7CF1F920F920FB6D6
:1007B0000F9211242F933F934F935F936F937F93E7
:1007C0008F939F93AF93BF93EF93FF938DE791E048
:1007D0000E940B01FF91EF91BF91AF919F918F917B
:1007E0007F916F915F914F913F912F910F900FBE2D
:1007F0000F901F9018951F920F920FB60F92112411
:100800002F938F939F93EF93FF93E0918D01F0913E
:100810008E018081E0919301F091940182FD1BC0D3
:100820009081809196018F5F8F732091970182173D
:1008300041F0E0919601F0E0E358FE4F958F8093F0
:100840009601FF91EF919F918F912F910F900FBE85
:100850000F901F9018958081F4CF1F920F920FB6C2
:100860000F9211242F933F938F939F93AF93BF9336
:100870008091770190917801A0917901B0917A01EE
:100880003091760123E0230F2D3758F50196A11DF5
:10089000B11D209376018093770190937801A09306
:1008A0007901B0937A018091720190917301A091C6
:1008B0007401B09175010196A11DB11D8093720163
:1008C00090937301A0937401B0937501BF91AF91A0
:1008D0009F918F913F912F910F900FBE0F901F907E
:1008E000189526E8230F0296A11DB11DD2CF96E0E0
:1008F000899FD0011124AA5DBD4F90967C936E9381
:100900005F9791E091969C939197E0919302F0917B
:10091000940290919202992339F0309751F081110D
:1009200008C0809142020994309719F05C968C912E
:10093000FACF08952FB7F8946091770170917801FC
:100940008091790190917A012FBF08950F931F93A1
:10095000CF93DF93C82FD62F86E0C89FF0011124D4
:10096000EA5DFD4F11A2878D90A181309105F1F0D4
:1009700058F082309105F1F1039709F440C0DF91FE
:10098000CF911F910F9108956623C9F361E070E044
:100990008C2F0E9477040E949A0460937E027093C9
:1009A0007F028093800290938102E9CF0E949A0493
:1009B00000917E0210917F0220918002309181028D
:1009C000AB01BC01401B510B620B730B8091900279
:1009D00090919102B0E0A0E084179507A607B707B1
:1009E00048F462E070E08C2FDF91CF911F910F915E
:1009F0000C94770463E070E0D111C1CFF4CF70E0C4
:100A000060E0F1CF9091A802891710F08FEF890F65
:100A1000E82FF0E0EB56FD4F848980680C94FB02D0
:100A2000FC0101900020E9F73197AF01481B590BF9
:100A3000BC0185E992E00C948D0070E060E08AE1F1
:100A400092E00E94AD0320911A0230911B028111A5
:100A500013C02115310519F0C9010E94FA0910923D
:100A60001B0210921A0210921F0210921E02109284
:100A70001D0210921C02089510921F0210921E0275
:100A800068E571E0C9010C94520BEF92FF920F934D
:100A90001F93CF93DF93EC017B01198218821B8295
:100AA0001A821D821C82FB0101900020E9F7319718
:100AB0008F01061B170BB8010E94AD0328813981F5
:100AC000811113C02115310519F0C9010E94FA09DD
:100AD000198218821D821C821B821A82DF91CF919B
:100AE0001F910F91FF90EF9008951D830C83B70124
:100AF000C901DF91CF911F910F91FF90EF900C945E
:100B0000520B1092800110927F0188EE93E0A0E0DA
:100B1000B0E08093810190938201A0938301B09310
:100B200084018DE191E090937E0180937D0185ECBD
:100B300090E090938A018093890184EC90E09093F7
:100B40008C0180938B0180EC90E090938E018093D8
:100B50008D0181EC90E09093900180938F0182EC65
:100B600090E0909392018093910186EC90E09093B5
:100B70009401809393011092960110929701109224
:100B8000980110929901109298021092970289E3AD
:100B900091E090939602809395028CE08093990265
:100BA0008FEF80939A028BE080939B028AE0809380
:100BB0009C0289E080939D0288E080939E0287E0FA
:100BC00080939F021092A0021092A1021092A202A2
:100BD0001092A3021092A40281E00E9401031092DD
:100BE000280210922C0210922B0210922D028FE2FA
:100BF00091E09093270280932602E2E4F2E01082D3
:100C0000148213821582369682E0EE37F807B9F720
:100C100083E091E0909389028093880280E091E0E4
:100C200090938B0280938A0284E080938C0283E00D
:100C300080938D0287E091E09093870280938602F3
:100C40008AE090E090938F0280938E0284EF91E08F
:100C500090939102809390021092940210929302CA
:100C600010928202109283021092840210928502E6
:100C70001092920261E471E080E292E00E944505E8
:100C800068E571E08AE192E00C944505CF93DF932B
:100C9000CDB7DEB7A1970FB6F894DEBF0FBECDBFBC
:100CA000789484B5826084BD84B5816084BD85B547
:100CB000826085BD85B5816085BD80916E00816053
:100CC00080936E00109281008091810082608093F9
:100CD00081008091810081608093810080918000FB
:100CE0008160809380008091B10084608093B10026
:100CF0008091B00081608093B00080917A00846020
:100D000080937A0080917A00826080937A0080914B
:100D10007A00816080937A0080917A008068809365
:100D20007A001092C10081E080937B0110927C01D7
:100D300060E270E08AE192E00E94AD03E0918D01F3
:100D4000F0918E0182E08083E0918901F0918A0127
:100D50001082E0918B01F0918C018FEC80831092D6
:100D60009501E0919101F091920186E08083E091FC
:100D70008F01F0919001808180618083E0918F01EB
:100D8000F0919001808188608083E0918F01F091E3
:100D90009001808180688083E0918F01F0919001C3
:100DA00080818F7D808382E00E94010361E083E186
:100DB0000E94210261E082E10E9421023AE0432E7A
:100DC000512C612C712CAA24A394B0907C01B110F9
:100DD0002EC1A09292020E949A0400918202109168
:100DE00083022091840230918502AB01BC01401B3B
:100DF000510B620B730B80918E0290918F02B0E0C9
:100E0000A0E084179507A607B70708F05CC110E0BB
:100E100080918C02181760F4E0918802F0918902A9
:100E2000E10FF11D62E080810E9421021F5FF0CF7F
:100E3000312C80918D02381608F063C0E32CF12C20
:100E4000E0918A02F0918B02EE0DFF1D61E080813E
:100E50000E942102E0918A02F0918B02EE0DFF1DAB
:100E600060E080810E94EF0181E090E0A0E0B0E0CE
:100E7000032C04C0880F991FAA1FBB1F0A94D2F726
:100E80004C016C01C094D094212C80918C022816C6
:100E900008F5022D10E0E0918802F0918902E00F40
:100EA000F11F80810E94C3010C5F1F4F000F111FB3
:100EB000F801EA5DFD4F892B41F4808191818829F9
:100EC0009929918380832394E0CF808191818C2123
:100ED0009D21F7CFE0918A02F0918B02EE0DFF1D6C
:100EE00061E080810E94EF0180918A0290918B02E3
:100EF000E80EF91E60E0F70180810E942102339420
:100F000098CF96E2E92E92E0F92E8701F801878DBD
:100F100090A1892B31F4148E8FEF9FEF968F858FE0
:100F200011A20A5F1F4F92E00236190779F7D12C00
:100F300080918C02D81608F053C0C12C8D2C912CB6
:100F4000880C991CF401E25DFD4F4F0120918D0248
:100F5000C21608F043C0F401608171810C2C02C0FC
:100F6000769567950A94E2F7D29E900111242C0D94
:100F7000311DE6E2F2E080E0458D568D24173507FD
:100F800009F404C18F5F36968A30B1F760FF24C040
:100F9000E6E2F2E090E080E0448D411118C0E0917B
:100FA0008602F0918702E20FF31F408156E0589FBE
:100FB000F001599FF00D1124EA5DFD4F448F368FEB
:100FC000258F10A2178E61E00E94A60405C001962D
:100FD00036968A30910501F7C394B8CFD394A8CF41
:100FE000F70181A18111B82EF6E0EF0EF11C0E156C
:100FF0001F05B1F70E949A046093820270938302E6
:101000008093840290938502BB2009F45CC0809198
:101010004702882309F457C0809145029091460207
:10102000019709F050C08091420281114FC0809118
:101030007B01882309F49CC00E949A0460317742A6
:101040008105910510F0A0927C0180E00E940205CC
:101050000E949A0428EE33E040E050E00E943609F6
:1010600019A28E010F5D1F4FCA01B901A3019201A0
:101070000E943609605DF80162938F0121153105E8
:101080004105510589F7309761F001900020E9F79B
:101090003197AF01401B510BB80185E992E00E94E6
:1010A0008D0084E691E00E94100580917C018823E8
:1010B00009F45FC061E083E10E94EF0161E082E139
:1010C0000E94EF01FFCF10929202B1CF8A3219F441
:1010D0000E941D05ACCF00911E0210911F028332A9
:1010E00039F5209124023091250220173107C1F4EF
:1010F00080911A0290911B0260912002709121024E
:10110000009709F445C06115710539F4012B09F404
:101110004DC0FC01808190E046C00E94490B43C055
:1011200081E00E94020589E591E00E941005D0CF80
:1011300089831A820F5F1F4FB8018AE192E00E94F3
:10114000AD03882309F473CF20911A0230911B025A
:1011500080911E0290911F02BE016F5F7F4F820F30
:10116000931F0E94520B10931F0200931E025FCF29
:10117000FFCF80E090E0892B09F427CE0E94F70092
:10118000882309F420CE0E9400001DCE61701CCF80
:101190006115710559F0232B49F0FB01808190E026
:1011A000919581959109892B09F0BACF10927B0115
:1011B00081E00E94FB028BE39FE10197F1F780E061
:1011C0000E94020586E491E00E94100581E00E94E1
:1011D000020583E591E00E94100529CF80911A0253
:1011E00090911B02009711F00E94FA098091200251
:1011F00090912102009711F00C94FA0908952F9212
:101200003F924F925F926F927F928F929F92AF9296
:10121000BF92CF92DF92EF92FF920F931F93CF93E3
:10122000DF93CDB7DEB7CA1BDB0B0FB6F894DEBF7A
:101230000FBECDBF09942A88398848885F846E84A0
:101240007D848C849B84AA84B984C884DF80EE80EA
:10125000FD800C811B81AA81B981CE0FD11D0FB6F3
:10126000F894DEBF0FBECDBFED010895A1E21A2EA6
:10127000AA1BBB1BFD010DC0AA1FBB1FEE1FFF1F3A
:10128000A217B307E407F50720F0A21BB30BE40B8A
:10129000F50B661F771F881F991F1A9469F76095D1
:1012A0007095809590959B01AC01BD01CF0108958B
:1012B000EE0FFF1F0590F491E02D09940F931F93FB
:1012C000CF93DF938230910510F482E090E0E091BB
:1012D000AF02F091B00230E020E0B0E0A0E0309743
:1012E00099F42115310509F44AC0281B390B243023
:1012F0003105D8F58A819B816115710589F1FB0162
:1013000093838283FE0111C0408151810281138148
:1013100048175907E0F04817590799F4109761F0FA
:1013200012960C93129713961C933296CF01DF916D
:10133000CF911F910F9108950093AF021093B002C7
:10134000F4CF2115310551F04217530738F0A901A8
:10135000DB019A01BD01DF01F801C1CFEF01F9CF37
:101360009093B0028093AF02CDCFFE01E20FF31F46
:10137000819391932250310939832883D7CF2091CB
:10138000AD023091AE02232B41F420911501309132
:1013900016013093AE022093AD02209113013091DB
:1013A00014012115310541F42DB73EB740911701C5
:1013B00050911801241B350BE091AD02F091AE0263
:1013C000E217F307A0F42E1B3F0B2817390778F01C
:1013D000AC014E5F5F4F2417350748F04E0F5F1F7B
:1013E0005093AE024093AD02819391939FCFF0E072
:1013F000E0E09CCFCF93DF930097E9F0FC013297B8
:1014000013821282A091AF02B091B002ED0130E0E0
:1014100020E01097A1F420813181820F931F209149
:10142000AD023091AE022817390709F061C0F09380
:10143000AE02E093AD02DF91CF910895EA01CE179D
:10144000DF07E8F54A815B819E0141155105B1F73F
:10145000E901FB83EA8349915991C40FD51FEC1729
:10146000FD0761F4808191810296840F951FE90147
:1014700099838883828193819B838A83F0E0E0E073
:1014800012968D919C9113970097B9F52D913C91EF
:101490001197CD010296820F931F2091AD023091DA
:1014A000AE022817390739F6309751F51092B0027D
:1014B0001092AF02B093AE02A093AD02BCCFD38323
:1014C000C28340815181840F951FC817D90761F4E9
:1014D0004E5F5F4F88819981480F591F5183408328
:1014E0008A819B81938382832115310509F0B0CFD6
:1014F000F093B002E093AF029ECFFD01DC01C0CFBC
:1015000013821282D7CFB0E0A0E0E9E8FAE00C94B1
:1015100001098C01009751F4CB010E945E098C01F6
:10152000C801CDB7DEB7E0E10C941D09FC01E60F60
:10153000F71F9C0122503109E217F30708F49DC000
:10154000D901CD91DC911197C617D70798F0C53016
:10155000D10530F3CE0104978617970708F3C61B11
:10156000D70B2297C193D1936D937C93CF010E94A7
:10157000FA09D6CF5B01AC1ABD0A4C018C0E9D1E38
:10158000A091AF02B091B002512C412CF12CE12C72
:10159000109731F58091AD029091AE0288159905B2
:1015A00009F05CC04616570608F058C08091130138
:1015B00090911401009741F48DB79EB740911701A7
:1015C00050911801841B950BE817F90708F055C0D6
:1015D000F093AE02E093AD02F90171836083A0CF76
:1015E0008D919C91119712966C90129713967C9006
:1015F0001397A815B90559F56C0142E0C40ED11C2A
:10160000CA14DB0420F1AC014A195B09DA01129615
:10161000159780F06282738251834083D9016D9364
:101620007C93E114F10471F0D7011396FC93EE93CF
:10163000129776CF22968C0F9D1FF901918380839C
:10164000F301EFCFF093B002E093AF0269CF4816F9
:10165000590608F42C017D01D3019ACFCB010E94D9
:101660005E097C01009749F0AE01B8010E94400B71
:10167000C8010E94FA09870153CF10E000E050CF63
:10168000FB01DC0102C001900D9241505040D8F79F
:101690000895FB01DC018D91019080190110D9F3AF
:1016A000990B0895FB01DC0101900D920020E1F7F8
:1016B000089510E0C2E6D0E004C0FE010E9458097F
:0C16C0002196C336D107C9F7F894FFCF7C
:1016CC00060504000102033132333435363738391C
:1016DC002A30230000B1028000000000002D018D93
:1016EC0000BA007A01EB00C900DD00000000005DCB
:1016FC00021D02EC0100000000A7038D00620261D4
:10170C00023132333400436F72726563742050615E
:10171C00737300283B5F3B290057726F6E67205034
:10172C006173730073202F203130206C6566742E2A
:02173C000000AB
:00000001FF
